{
  "contractName": "Wallet",
  "abi": [
    {
      "constant": true,
      "inputs": [
        {
          "name": "",
          "type": "uint256"
        }
      ],
      "name": "userStructList",
      "outputs": [
        {
          "name": "id",
          "type": "uint256"
        },
        {
          "name": "name",
          "type": "string"
        },
        {
          "name": "balance",
          "type": "uint256"
        }
      ],
      "payable": false,
      "stateMutability": "view",
      "type": "function"
    },
    {
      "constant": true,
      "inputs": [
        {
          "name": "",
          "type": "uint256"
        }
      ],
      "name": "userBytes32List",
      "outputs": [
        {
          "name": "",
          "type": "bytes32"
        }
      ],
      "payable": false,
      "stateMutability": "view",
      "type": "function"
    },
    {
      "constant": true,
      "inputs": [
        {
          "name": "",
          "type": "address"
        }
      ],
      "name": "Users",
      "outputs": [
        {
          "name": "id",
          "type": "uint256"
        },
        {
          "name": "name",
          "type": "string"
        },
        {
          "name": "balance",
          "type": "uint256"
        }
      ],
      "payable": false,
      "stateMutability": "view",
      "type": "function"
    },
    {
      "constant": true,
      "inputs": [],
      "name": "numberOfUser",
      "outputs": [
        {
          "name": "",
          "type": "uint256"
        }
      ],
      "payable": false,
      "stateMutability": "view",
      "type": "function"
    },
    {
      "constant": true,
      "inputs": [
        {
          "name": "",
          "type": "uint256"
        }
      ],
      "name": "addressList",
      "outputs": [
        {
          "name": "",
          "type": "address"
        }
      ],
      "payable": false,
      "stateMutability": "view",
      "type": "function"
    },
    {
      "inputs": [],
      "payable": false,
      "stateMutability": "nonpayable",
      "type": "constructor"
    },
    {
      "constant": true,
      "inputs": [
        {
          "name": "_address",
          "type": "address"
        }
      ],
      "name": "getUser",
      "outputs": [
        {
          "name": "",
          "type": "string"
        }
      ],
      "payable": false,
      "stateMutability": "view",
      "type": "function"
    },
    {
      "constant": false,
      "inputs": [
        {
          "name": "_address",
          "type": "address"
        },
        {
          "name": "_name",
          "type": "string"
        },
        {
          "name": "_amount",
          "type": "uint256"
        }
      ],
      "name": "addUser",
      "outputs": [],
      "payable": false,
      "stateMutability": "nonpayable",
      "type": "function"
    },
    {
      "constant": false,
      "inputs": [
        {
          "name": "_address",
          "type": "address"
        }
      ],
      "name": "getAllUserData",
      "outputs": [
        {
          "name": "",
          "type": "string"
        },
        {
          "name": "",
          "type": "uint256"
        }
      ],
      "payable": false,
      "stateMutability": "nonpayable",
      "type": "function"
    },
    {
      "constant": false,
      "inputs": [
        {
          "name": "_recieverAddress",
          "type": "address"
        },
        {
          "name": "_senderAddress",
          "type": "address"
        },
        {
          "name": "_amount",
          "type": "uint256"
        }
      ],
      "name": "payAmount",
      "outputs": [
        {
          "name": "",
          "type": "string"
        }
      ],
      "payable": false,
      "stateMutability": "nonpayable",
      "type": "function"
    },
    {
      "constant": true,
      "inputs": [],
      "name": "getStructListUser",
      "outputs": [
        {
          "components": [
            {
              "name": "id",
              "type": "uint256"
            },
            {
              "name": "name",
              "type": "string"
            },
            {
              "name": "balance",
              "type": "uint256"
            }
          ],
          "name": "",
          "type": "tuple[]"
        }
      ],
      "payable": false,
      "stateMutability": "view",
      "type": "function"
    }
  ],
  "bytecode": "0x608060405234801561001057600080fd5b5060006001819055506112f1806100286000396000f3006080604052600436106100a4576000357c0100000000000000000000000000000000000000000000000000000000900463ffffffff16806316035147146100a95780635ae1ade3146100e65780636f77926b1461012557806381efa6c91461016257806399b956a01461019f5780639b9c7f57146101de578063b810fb4314610209578063bfd91c2314610246578063d4ae406d14610284578063f0384fb6146102af575b600080fd5b3480156100b557600080fd5b506100d060048036036100cb9190810190610de2565b6102d8565b6040516100dd91906110a7565b60405180910390f35b3480156100f257600080fd5b5061010d60048036036101089190810190610e98565b610534565b60405161011c93929190611134565b60405180910390f35b34801561013157600080fd5b5061014c60048036036101479190810190610db9565b610605565b60405161015991906110a7565b60405180910390f35b34801561016e57600080fd5b5061018960048036036101849190810190610e98565b6106e9565b604051610196919061108c565b60405180910390f35b3480156101ab57600080fd5b506101c660048036036101c19190810190610db9565b61070c565b6040516101d593929190611134565b60405180910390f35b3480156101ea57600080fd5b506101f36107ce565b6040516102009190611119565b60405180910390f35b34801561021557600080fd5b50610230600480360361022b9190810190610e98565b6107d4565b60405161023d919061104f565b60405180910390f35b34801561025257600080fd5b5061026d60048036036102689190810190610db9565b610812565b60405161027b9291906110c9565b60405180910390f35b34801561029057600080fd5b50610299610940565b6040516102a6919061106a565b60405180910390f35b3480156102bb57600080fd5b506102d660048036036102d19190810190610e31565b610a56565b005b6060600080858560008060009150600090505b6000805490508160ff1610156103815760008160ff1681548110151561030d57fe5b9060005260206000200160009054906101000a900473ffffffffffffffffffffffffffffffffffffffff1673ffffffffffffffffffffffffffffffffffffffff168473ffffffffffffffffffffffffffffffffffffffff1614156103745781806001019250505b80806001019150506102eb565b6000821115156103c6576040517f08c379a00000000000000000000000000000000000000000000000000000000081526004016103bd906110f9565b60405180910390fd5b87600260008b73ffffffffffffffffffffffffffffffffffffffff1673ffffffffffffffffffffffffffffffffffffffff168152602001908152602001600020600201541015156104ee57600260008a73ffffffffffffffffffffffffffffffffffffffff1673ffffffffffffffffffffffffffffffffffffffff1681526020019081526020016000209550878660020154038660020181905550600260008b73ffffffffffffffffffffffffffffffffffffffff1673ffffffffffffffffffffffffffffffffffffffff16815260200190815260200160002094508785600201540185600201819055506040805190810160405280600781526020017f73756363657373000000000000000000000000000000000000000000000000008152509650610527565b6040805190810160405280601381526020017f696e73756666696369656e7420416d6f756e740000000000000000000000000081525096505b5050505050509392505050565b60038181548110151561054357fe5b9060005260206000209060030201600091509050806000015490806001018054600181600116156101000203166002900480601f0160208091040260200160405190810160405280929190818152602001828054600181600116156101000203166002900480156105f55780601f106105ca576101008083540402835291602001916105f5565b820191906000526020600020905b8154815290600101906020018083116105d857829003601f168201915b5050505050908060020154905083565b6060600260008373ffffffffffffffffffffffffffffffffffffffff1673ffffffffffffffffffffffffffffffffffffffff1681526020019081526020016000206001018054600181600116156101000203166002900480601f0160208091040260200160405190810160405280929190818152602001828054600181600116156101000203166002900480156106dd5780601f106106b2576101008083540402835291602001916106dd565b820191906000526020600020905b8154815290600101906020018083116106c057829003601f168201915b50505050509050919050565b6004818154811015156106f857fe5b906000526020600020016000915090505481565b6002602052806000526040600020600091509050806000015490806001018054600181600116156101000203166002900480601f0160208091040260200160405190810160405280929190818152602001828054600181600116156101000203166002900480156107be5780601f10610793576101008083540402835291602001916107be565b820191906000526020600020905b8154815290600101906020018083116107a157829003601f168201915b5050505050908060020154905083565b60015481565b6000818154811015156107e357fe5b906000526020600020016000915054906101000a900473ffffffffffffffffffffffffffffffffffffffff1681565b60606000600260008473ffffffffffffffffffffffffffffffffffffffff1673ffffffffffffffffffffffffffffffffffffffff168152602001908152602001600020600101600260008573ffffffffffffffffffffffffffffffffffffffff1673ffffffffffffffffffffffffffffffffffffffff16815260200190815260200160002060020154818054600181600116156101000203166002900480601f0160208091040260200160405190810160405280929190818152602001828054600181600116156101000203166002900480156109305780601f1061090557610100808354040283529160200191610930565b820191906000526020600020905b81548152906001019060200180831161091357829003601f168201915b5050505050915091509150915091565b60606003805480602002602001604051908101604052809291908181526020016000905b82821015610a4d57838290600052602060002090600302016060604051908101604052908160008201548152602001600182018054600181600116156101000203166002900480601f016020809104026020016040519081016040528092919081815260200182805460018160011615610100020316600290048015610a2b5780601f10610a0057610100808354040283529160200191610a2b565b820191906000526020600020905b815481529060010190602001808311610a0e57829003601f168201915b5050505050815260200160028201548152505081526020019060010190610964565b50505050905090565b600160008154809291906001019190505550606060405190810160405280600154815260200183815260200182815250600260008573ffffffffffffffffffffffffffffffffffffffff1673ffffffffffffffffffffffffffffffffffffffff168152602001908152602001600020600082015181600001556020820151816001019080519060200190610aeb929190610c0f565b50604082015181600201559050506003600260008573ffffffffffffffffffffffffffffffffffffffff1673ffffffffffffffffffffffffffffffffffffffff168152602001908152602001600020908060018154018082558091505090600182039060005260206000209060030201600090919290919091506000820154816000015560018201816001019080546001816001161561010002031660029004610b96929190610c8f565b506002820154816002015550505060008390806001815401808255809150509060018203906000526020600020016000909192909190916101000a81548173ffffffffffffffffffffffffffffffffffffffff021916908373ffffffffffffffffffffffffffffffffffffffff16021790555050505050565b828054600181600116156101000203166002900490600052602060002090601f016020900481019282601f10610c5057805160ff1916838001178555610c7e565b82800160010185558215610c7e579182015b82811115610c7d578251825591602001919060010190610c62565b5b509050610c8b9190610d16565b5090565b828054600181600116156101000203166002900490600052602060002090601f016020900481019282601f10610cc85780548555610d05565b82800160010185558215610d0557600052602060002091601f016020900482015b82811115610d04578254825591600101919060010190610ce9565b5b509050610d129190610d16565b5090565b610d3891905b80821115610d34576000816000905550600101610d1c565b5090565b90565b6000610d47823561123a565b905092915050565b600082601f8301121515610d6257600080fd5b8135610d75610d708261119f565b611172565b91508082526020830160208301858383011115610d9157600080fd5b610d9c838284611264565b50505092915050565b6000610db1823561125a565b905092915050565b600060208284031215610dcb57600080fd5b6000610dd984828501610d3b565b91505092915050565b600080600060608486031215610df757600080fd5b6000610e0586828701610d3b565b9350506020610e1686828701610d3b565b9250506040610e2786828701610da5565b9150509250925092565b600080600060608486031215610e4657600080fd5b6000610e5486828701610d3b565b935050602084013567ffffffffffffffff811115610e7157600080fd5b610e7d86828701610d4f565b9250506040610e8e86828701610da5565b9150509250925092565b600060208284031215610eaa57600080fd5b6000610eb884828501610da5565b91505092915050565b610eca81611206565b82525050565b6000610edb826111d8565b80845260208401935083602082028501610ef4856111cb565b60005b84811015610f2d578383038852610f0f838351610ff0565b9250610f1a826111f9565b9150602088019750600181019050610ef7565b508196508694505050505092915050565b610f4781611226565b82525050565b6000610f58826111ee565b808452610f6c816020860160208601611273565b610f75816112a6565b602085010191505092915050565b6000610f8e826111e3565b808452610fa2816020860160208601611273565b610fab816112a6565b602085010191505092915050565b6000600f82527f6164647265737320696e76616c696400000000000000000000000000000000006020830152604082019050919050565b60006060830160008301516110086000860182611040565b50602083015184820360208601526110208282610f83565b91505060408301516110356040860182611040565b508091505092915050565b61104981611230565b82525050565b60006020820190506110646000830184610ec1565b92915050565b600060208201905081810360008301526110848184610ed0565b905092915050565b60006020820190506110a16000830184610f3e565b92915050565b600060208201905081810360008301526110c18184610f4d565b905092915050565b600060408201905081810360008301526110e38185610f4d565b90506110f26020830184611040565b9392505050565b6000602082019050818103600083015261111281610fb9565b9050919050565b600060208201905061112e6000830184611040565b92915050565b60006060820190506111496000830186611040565b818103602083015261115b8185610f83565b905061116a6040830184611040565b949350505050565b6000604051905081810181811067ffffffffffffffff8211171561119557600080fd5b8060405250919050565b600067ffffffffffffffff8211156111b657600080fd5b601f19601f8301169050602081019050919050565b6000602082019050919050565b600081519050919050565b600081519050919050565b600081519050919050565b6000602082019050919050565b600073ffffffffffffffffffffffffffffffffffffffff82169050919050565b6000819050919050565b6000819050919050565b600073ffffffffffffffffffffffffffffffffffffffff82169050919050565b6000819050919050565b82818337600083830152505050565b60005b83811015611291578082015181840152602081019050611276565b838111156112a0576000848401525b50505050565b6000601f19601f83011690509190505600a265627a7a72305820c817079a469bd2173ab6eecb5436628d22691841deca17278b669b75981e2f2a6c6578706572696d656e74616cf50037",
  "source": "pragma solidity ^0.4.23;\r\npragma experimental ABIEncoderV2;\r\n\r\ncontract Wallet {\r\n\r\n    struct User {\r\n        uint id;\r\n        string name;\r\n        uint balance;\r\n    }\r\n\r\n    address[] public addressList;\r\n    uint public numberOfUser;\r\n    mapping (address => User) public Users;\r\n    User[] public userStructList;\r\n    bytes32[]  public userBytes32List;\r\n\r\n\r\n\r\n    constructor () public {\r\n        numberOfUser = 0;\r\n    }\r\n\r\n    modifier isAccountExist( address _recieverAddress ,  address _senderAaddress){\r\n        uint count = 0;\r\n        for (var index = 0; index < addressList.length; index++) {\r\n            if(_recieverAddress  ==  addressList[index]) {\r\n                count++;\r\n            }\r\n        }\r\n        require(count > 0, \"address invalid\");\r\n        _;\r\n    }\r\n\r\n     modifier isRecieverSameAsSender( address _recieverAddress ,  address _senderAaddress){\r\n\r\n        require(_recieverAddress != _senderAaddress);\r\n        _;\r\n    }\r\n\r\n    function getUser(address _address) public view returns (string) {\r\n        return Users[_address].name;\r\n    }\r\n\r\n    function addUser(address _address, string _name, uint _amount) public {\r\n        numberOfUser++;\r\n        Users[_address] = User(numberOfUser, _name, _amount);\r\n        userStructList.push(Users[_address]);\r\n        addressList.push(_address);\r\n    }\r\n\r\n    function getAllUserData(address _address) public returns (string, uint) {\r\n        return (Users[_address].name, Users[_address].balance);\r\n    }\r\n\r\n    function payAmount(\r\n\r\n            address _recieverAddress,\r\n            address _senderAddress,\r\n            uint _amount\r\n        ) isAccountExist(_recieverAddress ,_senderAddress ) public returns (string)\r\n        {\r\n\r\n\r\n            if(Users[_senderAddress].balance >= _amount){\r\n                // get the sender user data\r\n\r\n                User storage SenderUser = Users[_senderAddress];\r\n                // reduced the balance\r\n\r\n                SenderUser.balance = SenderUser.balance-_amount;\r\n                // get the reciever user data\r\n\r\n                User storage RecieverUser = Users[_recieverAddress];\r\n                // increasse the balance\r\n\r\n                RecieverUser.balance = RecieverUser.balance + _amount;\r\n\r\n                return \"success\";\r\n\r\n                }else{\r\n                    return \"insufficient Amount\";\r\n                }\r\n    }\r\n\r\n    function getStructListUser() public view returns (User[]) {\r\n        return userStructList;\r\n    }\r\n\r\n\r\n\r\n\r\n\r\n}",
  "sourcePath": "H:\\ethereum\\contracts\\wallet.sol",
  "compiler": {
    "name": "solc",
    "version": "0.4.24+commit.e67f0147.Emscripten.clang"
  },
  "schemaVersion": "2.0.1",
  "updatedAt": "2018-07-15T07:38:27.392Z"
}